:020000040800F2
:1000000000000220E58A0008851100088711000819
:10001000891100088B1100088D11000800000000F4
:10002000000000000000000000000000B1680008AF
:100030008F110008000000005169000837610008B6
:10004000358B0008358B0008358B0008358B000890
:10005000358B0008358B0008358B0008358B000880
:10006000358B0008358B0008358B0008358B000870
:10007000358B0008358B0008358B0008358B000860
:10008000358B0008358B0008358B0008358B000850
:10009000358B0008358B0008358B0008911100085E
:1000A000358B00089D110008358B0008358B000842
:1000B000358B0008358B0008358B0008358B000820
:1000C000358B0008358B0008358B0008358B000810
:1000D000358B0008358B0008358B0008358B000800
:1000E000358B0008358B000800000000358B0008B8
:1000F000358B0008358B0008358B0008358B0008E0
:10010000358B0008358B0008358B0008358B0008CF
:10011000358B0008358B0008AD110008358B0008C1
:10012000358B0008358B0008358B0008358B0008AF
:10013000358B0008358B0008358B0008358B00089F
:1001400000000000000000000000000000000000AF
:10015000358B0008358B0008358B0008358B00087F
:10016000358B0008358B0008358B0008358B00086F
:10017000358B0008BD110008358B00080000000019
:10018000358B0008358B0008358B0008358B00084F
:10019000358B0008358B0008358B0008358B00083F
:1001A000358B0008358B0008358B0008358B00082F
:1001B000358B0008358B0008358B0008358B00081F
:1001C000358B0008358B0008358B0008358B00080F
:1001D000358B0008358B0008358B0008358B0008FF
:1001E000358B0008358B0008358B0008358B0008EF
:1001F000358B0008358B0008358B0008358B0008DF
:10020000358B0008358B0008358B0008358B0008CE
:10021000358B0008358B0008358B0008358B0008BE
:10022000358B0008358B0008358B00080000000076
:10023000358B0008358B000800000000358B000866
:10024000358B0008358B0008358B0008358B00088E
:10025000358B0008358B0008358B0008358B00087E
:10026000358B0008358B0008358B0008358B00086E
:10027000358B0008358B0008358B00080000000026
:10028000358B0008358B0008358B00080000000016
:0802900000000000358B00089E
:1002A00010B5054C237833B9044B13B10448AFF3B0
:1002B00000800123237010BD7801002000000000A1
:1002C000AC8B000808B5034B1BB103490348AFF3DF
:1002D000008008BD000000007C010020AC8B0008FD
:1002E00010B582B0144640F040008DF804000023A1
:1002F0008DF805308DF80610104600F02FFD6423B0
:10030000032201A9054803F001FD012001F052F884
:10031000204600F04FFD02B010BD00BF341C00208D
:1003200010B582B00C468DF80700084600F016FDA7
:10033000642301220DF10701054803F0E7FC0120C9
:1003400001F038F8204600F035FD02B010BD00BFC6
:10035000341C002000B589B041238DF804301623E9
:100360008DF80530002307E05A1C0D49895C2233C3
:100370006B4403F81C1C1346162BF5DD012000F01E
:10038000EDFC6423192201A9064803F0BFFC0120FB
:1003900001F010F8012000F00DFD09B05DF804FB3C
:1003A00000000020341C002010B588B00446412312
:1003B0008DF8043016238DF80530002307E05A1C11
:1003C0000C49895C22336B4403F81C1C1346162B22
:1003D000F5DD204600F0C2FC6423192201A906487D
:1003E00003F094FC012000F0E5FF204600F0E2FC61
:1003F00008B010BD18000020341C002010B53C4C83
:1004000000224FF48061204601F054F94FF47A70D5
:1004100000F0D0FF01224FF48061204601F04AF93C
:100420004FF4967000F0C6FF00224FF40071204692
:1004300001F040F901211120FFF772FF4FF496708F
:1004400000F0B8FFFFF786FF4FF47A7000F0B2FFBC
:1004500002211120FFF764FF0220FFF7A5FF3220E1
:1004600000F0A8FF03211120FFF75AFF0320FFF738
:100470009BFF322000F09EFF04211120FFF750FF68
:100480000420FFF791FF322000F094FF0521112096
:10049000FFF746FF0520FFF787FF4FF47A7000F063
:1004A00089FFA4F5C05401224FF40071204601F0E9
:1004B00001F94FF4FA7000F07DFF00224FF4007153
:1004C000204601F0F7F801211020FFF729FF022153
:1004D0001020FFF725FF03211020FFF721FF042143
:1004E0001020FFF71DFF05211020FFF719FF10BD99
:1004F000001C025830B5A9B000212191229123910E
:10050000249125912691ADF89C100391742204A8A2
:1005100008F044FB20238DF8843017238DF88530B4
:10052000012000F01BFC324C6423022221A920464A
:1005300003F0ECFB64250095182303AA21A92046AB
:1005400003F046FD012000F035FC022000F006FC1F
:100550002B46022221A9204603F0D8FB0095182340
:1005600009AA21A9204603F033FD022000F022FC55
:10057000032000F0F3FB2B46022221A9204603F0C2
:10058000C5FB009518230FAA21A9204603F020FDE2
:10059000032000F00FFC042000F0E0FB2B460222B9
:1005A00021A9204603F0B2FB0095182315AA21A922
:1005B000204603F00DFD042000F0FCFB052000F0B8
:1005C000CDFB2B46022221A9204603F09FFB00957C
:1005D00018231BAA21A9204603F0FAFC052000F0ED
:1005E000E9FB782103A808F019F829B030BD00BF55
:1005F000341C00200346002006E013F8012B424083
:10060000044911F82200614601F1FF3C0029F4D1B0
:10061000704700BFC48B000808B507F075FF4FF4A2
:10062000FA6005F021FEFAE780B582B0ACE0012067
:1006300000F094FBC94C226802EBC202C2EB02122A
:10064000C74EDFF83C93C74D64270097032332441D
:100650004946284603F0BCFC226802EBC202C2EB0A
:1006600002120F32DFF81C830097182332444146F0
:10067000284603F0ADFC012000F09CFB022000F0B6
:100680006DFB226802EBC202C2EB0212033200973A
:10069000032332444946284603F09AFC226802EBC1
:1006A000C202C2EB0212273200971823324441469D
:1006B000284603F08DFC022000F07CFB032000F0B4
:1006C0004DFB226802EBC202C2EB02120632009717
:1006D000032332444946284603F07AFC226802EBA1
:1006E000C202C2EB02123F32009718233244414645
:1006F000284603F06DFC032000F05CFB042000F0B2
:100700002DFB226802EBC202C2EB021209320097F3
:10071000032332444946284603F05AFC226802EB80
:10072000C202C2EB021257320097182332444146EC
:10073000284603F04DFC042000F03CFB052000F0AF
:100740000DFB226802EBC202C2EB02120C320097D0
:10075000032332444946284603F03AFC226802EB60
:10076000C202C2EB02126F32009718233244414694
:10077000284603F02DFC052000F01CFB2368013304
:100780002360192B00F0D680774B1D78774B1978B2
:10079000774C4FF0FF3303222943206805F0E1FD39
:1007A0002946206805F0BDFD724B1B68002B7FF4C5
:1007B0003EAF012000F0D2FA684C226802EBC20280
:1007C000C2EB02126C4EDFF8B891664D64270097B9
:1007D000032332444946284603F0FAFB226802EB21
:1007E000C202C2EB02120F32DFF898810097182381
:1007F00032444146284603F0EBFB012000F0DAFAD0
:10080000022000F0ABFA226802EBC202C2EB021235
:1008100003320097032332444946284603F0D8FBAD
:10082000226802EBC202C2EB0212273200971823A1
:1008300032444146284603F0CBFB022000F0BAFACE
:10084000032000F08BFA226802EBC202C2EB021214
:1008500006320097032332444946284603F0B8FB8A
:10086000226802EBC202C2EB02123F320097182349
:1008700032444146284603F0ABFB032000F09AFACD
:10088000042000F06BFA226802EBC202C2EB0212F3
:1008900009320097032332444946284603F098FB67
:1008A000226802EBC202C2EB0212573200971823F1
:1008B00032444146284603F08BFB042000F07AFACC
:1008C000052000F04BFA226802EBC202C2EB0212D2
:1008D0000C320097032332444946284603F078FB44
:1008E000226802EBC202C2EB02126F320097182399
:1008F00032444146284603F06BFB052000F05AFACB
:10090000236801332360192B7FF43EAF40F62F514B
:100910003046FFF76FFE86F82F0D104B00221A604D
:10092000144B01221A60154B1978114B186805F009
:10093000CBFC29E740F62F513046FFF75BFE86F8E7
:100940002F0D0023054A13600A4A13600B4B1978D8
:10095000074B186805F0B8FC16E700BF301C0020F4
:10096000D40E0020341C00201D9100081C910008AA
:100970000C1C00209C010020A40100201F910008F5
:1009800030000020181C002008B517E02146112077
:10099000FFF7C6FC012000F00DFD0134052CF5DD4C
:1009A000FFF7A8FD012407E021461020FFF7B8FC5F
:1009B000012000F0FFFC0134052CF5DD4FF0FF3382
:1009C0000022044909780448006805F0CAFC0124A3
:1009D000E4E700BF209100080C1C002008B504E0EB
:1009E0004FF453610A4807F019FE4FF0FF3300221D
:1009F000084909780848006805F0B3FC074B1B68F4
:100A0000002BEDD04FF45361054807F007FEECE7EB
:100A1000D40E00201F9100080C1C00209C01002017
:100A2000A401002008B525E021461120FFF778FC3D
:100A3000012000F0BFFC0134052CF5DD012509E0A3
:100A4000601D2A466521C0B2FFF74AFC0134072C1D
:100A5000F6DD0135052D01DC0024F8E7012407E06F
:100A600021461020FFF75CFC012000F0A3FC0134BC
:100A7000052CF5DD4FF0FF330022044909780448C6
:100A8000006805F06EFC0124D6E700BF2191000844
:100A90000C1C002008B525E021461120FFF740FC82
:100AA000012000F087FC0134052CF5DD012509E06B
:100AB000601D2A466021C0B2FFF712FC0134072CEA
:100AC000F6DD0135052D01DC0024F8E7012407E0FF
:100AD00021461020FFF724FC012000F06BFC0134BC
:100AE000052CF5DD4FF0FF33002204490978044856
:100AF000006805F036FC0124D6E700BF1E9100080F
:100B00000C1C002008B51B4A0121084605F064FCB6
:100B1000194B1860194A0021194805F047FB194B79
:100B20001860194A0021194805F040FB184B18605D
:100B3000184A0021184805F039FB184B1860184A6C
:100B40000021184805F032FB174B1860174A0021A6
:100B5000174805F02BFB174B1860174A0021174860
:100B600005F024FB164B1860164805F08BFB164B5E
:100B7000186008BD2490000894010020A09000088F
:100B800019060008081C00205890000829060008D3
:100B9000A001002034900008890900089801002075
:100BA0007C900008DD090008041C0020F890000873
:100BB000250A0008141C0020D4900008950A00089B
:100BC000101C0020C49000080C1C00202DE9F043EC
:100BD0008DB000240794089409940A940B94524B06
:100BE000D3F8E02042F00402C3F8E020D3F8E0207C
:100BF00002F004020192019AD3F8E02042F48072DC
:100C0000C3F8E020D3F8E02002F480720292029A46
:100C1000D3F8E02042F08002C3F8E020D3F8E020CF
:100C200002F080020392039AD3F8E02042F001021E
:100C3000C3F8E020D3F8E02002F001020492049A05
:100C4000D3F8E02042F00202C3F8E020D3F8E0201D
:100C500002F002020592059AD3F8E02042F0080261
:100C6000C3F8E020D3F8E03003F008030693069BB6
:100C7000DFF8C0900122D021484600F01BFDDFF8CC
:100C8000B88001224FF4A861404600F013FD2246CF
:100C90004FF40071404600F00DFD244F01224FF447
:100CA0004071384600F006FDD023079301260896D0
:100CB000022509950A9507A9484600F0EBFB4FF479
:100CC000E8630793089609950A9507A9404600F03E
:100CD000E1FB4FF48078CDF81C804FF404130893A7
:100CE000099607A9124800F0D5FBCDF81C8008969C
:100CF00009960A9507A9384600F0CCFB4FF400731B
:100D00000793089609950A9507A9384600F0C2FB93
:100D100022460521172000F079FB172000F0ACFBDC
:100D20000DB0BDE8F08300BF004402580004025833
:100D3000000C025800000258001C0258B0F5807FD9
:100D400000D0704708B5034B1978034B186805F0BD
:100D5000BBFA08BD1D9100080C1C002008B5013825
:100D6000042809D8DFE800F003090F151B00002252
:100D700040210E4800F09EFC08BD002280210B4857
:100D800000F098FCF8E700224021094800F092FCAE
:100D9000F2E700221021054800F08CFCECE700226D
:100DA0004FF48071024800F085FCE5E7000002582E
:100DB000001C025808B50138042809D8DFE800F003
:100DC00003090F151B00012240210E4800F072FCA0
:100DD00008BD012280210B4800F06CFCF8E70122DD
:100DE0004021094800F066FCF2E701221021054885
:100DF00000F060FCECE701224FF48071024800F043
:100E000059FCE5E700000258001C025808B50268CA
:100E1000034B9A4200D008BD00F0BAFAFBE700BFCE
:100E20000000014072B6FEE700B59DB04C220021E3
:100E300009A807F0B3FE2022002101A807F0AEFEAA
:100E4000022001F01FFA002300932A4B9A6942F412
:100E500040429A619B6903F440430093264BDA6A4F
:100E600042F00102DA62DB6A03F001030093009BA7
:100E7000204B9B6913F4005FFAD0204A936A23F059
:100E8000030343F002039362012309934FF4803379
:100E90000A9302231293139305221492C0221592EF
:100EA00016931022179218930823199300231A936C
:100EB0001B9309A801F018FAB8B93F230193032343
:100EC000029300230393082304934023059306937E
:100ED0004FF480620792089304210DEB010001F0AA
:100EE00037FE20B91DB05DF804FBFFF79BFFFFF74D
:100EF00099FF00BF004802580004005800440258FF
:100F000008B500F017FAFFF78FFFFFF75FFE00F05C
:100F100035F800F0C1F9184C00224FF4007120465A
:100F200000F0C8FB4FF47A7000F044FAFFF766FA5D
:100F30004FF4FA7000F03EFA01224FF4007120469F
:100F400000F0B8FB04F5C05400224FF400712046B5
:100F500000F0B0FB4FF4FA7000F02CFA01224FF4CD
:100F60000071204600F0A6FB05F0F2F8FFF7CAFD7D
:100F700005F000F9FEE700BF0004025808B5154867
:100F8000154B03604FF48003436000238360072206
:100F9000C26003614FF0807242614FF080628261F3
:100FA0004FF0A042C261036243628362C3624FF0AA
:100FB000804242638363C363036443648364C364A2
:100FC00003654365836502F0EDFD00B908BDFFF7D9
:100FD00029FFFBE7341C0020003C004030B5B9B0CD
:100FE0000446002133913491359136913791BC22DA
:100FF00004A807F0D3FD22682D4B9A4201D039B0E6
:1010000030BD4FF48053049305220592A02206922E
:101010000422079202220892099280220A921B93CC
:1010200004A802F049F800283ED1224BD3F8E8206A
:1010300042F40042C3F8E820D3F8E82002F400426A
:101040000192019AD3F8E02042F00202C3F8E020B6
:10105000D3F8E02002F002020292029AD3F8E020D4
:1010600042F00402C3F8E020D3F8E03003F00403B8
:101070000393039B04233393022434943594032570
:1010800036950723379333A90B4800F003FA4FF442
:10109000406333933494359436950623379333A9BC
:1010A000064800F0F7F9AAE7FFF7BCFEBDE700BF6E
:1010B000003C004000440258000402580008025856
:1010C00000B583B00A4BD3F8F42042F00202C3F813
:1010D000F420D3F8F43003F002030193019B0022C3
:1010E0000F216FF0010000F091F903B05DF804FBEF
:1010F000004402580F2801D90120704710B58AB06A
:10110000044600220146192000F080F9192000F061
:10111000B3F9174B1C60174BD3F8F02042F00102D3
:10112000C3F8F020D3F8F03003F001030093009BE4
:1011300001A902A801F08AFE01F076FE43000E48E4
:10114000A0FB03239B0C013B0C480D4A026040F2BC
:10115000E732C260436000230361836003F0E4FA76
:1011600010B101200AB010BD044803F041F9F9E7BD
:10117000400000200044025883DE1B43BC1C0020BA
:1011800000000140FEE7FEE7FEE7FEE7FEE77047EE
:1011900008B54FF4807000F093FA08BD08B5024816
:1011A00003F072F908BD00BFBC1C002008B502485E
:1011B00003F06AF908BD00BF081D002008B5024809
:1011C00000F056FC08BD00BF7C6B0020274AD2F817
:1011D000883043F47003C2F88830254B1B6803F055
:1011E0000F03062B06D8224A136823F00F0343F09F
:1011F000070313601F4B1A6842F001021A600022B5
:101200001A6119681C4A0A401A60194B1B6813F0CE
:10121000080F06D0164A136823F00F0343F00703A4
:101220001360144B00229A61DA611A6213499962C1
:101230001349D962134919635A639963DA631964CC
:101240005A64196821F4802119601A660E4B1A68D5
:101250000E4B1340B3F1005F03D20D4B0122C3F8D4
:1012600008210C4B43F2D2021A60704700ED00E0F7
:1012700000200052004402587FEDF6EA000202020C
:101280000000FF01800201010010005C0000FFFF70
:10129000008000510040005200B585B0002301934A
:1012A000029303930F48104A0260EF22426083606A
:1012B0004FF6FF73C3608023836103F035FA50B9A2
:1012C00000230193039301A9064803F05DFA28B9AE
:1012D00005B05DF804FBFFF7A5FDF1E7FFF7A2FD00
:1012E000F6E700BF081D00200010004002680F4B09
:1012F0009A4200D0704700B583B00D4BD3F8E82078
:1013000042F01002C3F8E820D3F8E83003F01003ED
:101310000193019B00220521362000F077F836204A
:1013200000F0AAF803B05DF804FB00BF0010004015
:101330000044025810B5032000F056F801F00EFBEF
:101340000F498B69C3F303230E4AD35C03F01F03D9
:10135000D8408B6903F00F03D35C03F01F0320FA1E
:1013600003F3094A1360094B18600F20FFF7C2FE10
:1013700010B10124204610BD0446FFF7A1FEF9E795
:101380000044025824910008380000203400002056
:10139000034B1B78034A11680B441360704700BF6E
:1013A0003C000020541D0020014B1868704700BF0E
:1013B000541D002038B50446FFF7F6FF0546B4F18A
:1013C000FF3F02D0044B1B781C44FFF7EDFF401B8E
:1013D000A042FAD338BD00BF3C000020014B186882
:1013E000000C70470010005C0649CB6823F4E063F2
:1013F0001B041B0C000200F4E0600343024A1A4382
:10140000CA60704700ED00E00000FA0500B5174B18
:10141000DB68C3F30223C3F1070CBCF1040F28BF40
:101420004FF0040C03F1040EBEF1060F14D9033B78
:101430004FF0FF3E0EFA0CFC21EA0C0199400EFA27
:1014400003F322EA03031943002807DB0901C9B2A9
:10145000074B19545DF804FB0023E9E700F00F0087
:101460000901C9B2034B1954F4E700BF00ED00E0D5
:1014700000E400E014ED00E0002807DB00F01F02AC
:10148000400901239340024A42F82030704700BFD0
:1014900000E100E0F0B583B000236BE085685E00FA
:1014A0000324B44025EA0405CC68B4402C4384608E
:1014B000446824EA0C0C4C68C4F300149C4044EAD1
:1014C0000C04446068E0DD08083550F8256003F03E
:1014D00007044FEA840C0F2404FA0CF426EA040EE5
:1014E0000C6904FA0CF444EA0E0440F825406BE061
:1014F000092400E0002404FA0EF42C430CF1020C41
:10150000694D45F82C404FF0B0442568D44325EA96
:1015100002064F6817F4801F01D042EA05064FF01B
:10152000B0452E606D6804EA05064F6817F4001F89
:1015300001D042EA05064FF0B0456E60D5F8845000
:1015400004EA05064F6817F4003F01D042EA050699
:101550004FF0B045C5F88460D5F880502C404E68F7
:1015600016F4803F01D042EA05044FF0B042C2F8C1
:10157000804001330A6832FA03F400F092804FF0A1
:10158000010C0CFA03FC1CEA0202F2D04C6804F0D5
:101590000304013C012C81D94C6804F00304032CA2
:1015A0000CD0C4685D004FF0030C0CFA05FC24EA73
:1015B0000C0C8C68AC4044EA0C04C4604C6804F029
:1015C0000304022C3FF47FAF04684FEA430E4FF050
:1015D000030C0CFA0EFC24EA0C0C4C6804F0030417
:1015E00004FA0EF444EA0C0404604C6814F4403F1E
:1015F000BFD02E4CD4F8F45045F00205C4F8F45096
:10160000D4F8F44004F002040194019C4FEA930CD6
:101610000CF10205244C54F8255003F003044FEA62
:10162000840E0F2404FA0EF425EA0405204CA0428F
:101630003FF460AF04F58064A04222D004F58064DA
:10164000A04220D004F58064A0421ED004F580643E
:10165000A0421CD004F58064A0421AD004F5806436
:10166000A04218D004F58064A04216D004F580642E
:10167000A04214D004F58064A0423FF439AF0A249C
:1016800039E7012437E7022435E7032433E704244C
:1016900031E705242FE706242DE707242BE708244C
:1016A00029E703B0F0BD00BF000400580044025811
:1016B000000002580AB181617047090481617047D6
:1016C00008B54FF0B043D3F88830034200D108BDCD
:1016D0004FF0B043C3F88800FFF730FBF7E72DE980
:1016E000F04383B0D0F80080C1EBC10300EB83036B
:1016F0005A6D1B6D9A4254D807460C469B1AC1EB93
:10170000C10200EB8202526C9A4200D31A4602F1E7
:1017100003094FEA990915E006F103094FEA99090F
:10172000C4EBC40507EB8505A96C3B7C0093B3B201
:10173000E2B2404603F0E0FBAB6C3344AB646B6D4C
:1017400033446B6508EB441303F510639B699BB24C
:101750004B4512D3C4EBC40207EB8202516D136DEB
:1017600099420AD24BB15B1AC4EBC40207EB820266
:10177000566C9E42D0D31E46CEE7C4EBC40007EBA6
:1017800080073A6D7B6D9A420FD804F00F04012355
:10179000A340D8F8344824EA0304C8F834480020A9
:1017A00000E0012003B0BDE8F0830020FAE770B547
:1017B0008AB0002800F097800546046890F8BD3391
:1017C0003BB3032385F8BD33E36B13F4807F01D172
:1017D00000232B61286803F017F92C4654F8106B8E
:1017E000EC460FCCACE80F000FCCACE80F0094E84F
:1017F00003008CE803002B1D0ECB304603F03EF8AF
:10180000044658B1022385F8BD33012420460AB0AE
:1018100070BD80F8BC3306F0A5FFD2E70021286830
:1018200003F082FD234616E0C3EBC30205EB820200
:10183000012182F83D1082F83C30A2F842300021AC
:1018400082F83F1051649164C3EBC30205EB82023E
:1018500011650133DBB269688B42E5D316E0C4EB56
:10186000C40305EB8303002283F8FD2183F8FC41C8
:1018700083F8FF21C3F80422C3F80822C4EBC40391
:1018800005EB8303C3F810220134E4B2A142E6D889
:101890002C4654F8106BEC460FCCACE80F000FCC84
:1018A000ACE80F0094E803008CE803002B1D0ECB7E
:1018B000304603F001F9044660B9002385F838305A
:1018C000012385F8BD336B6A012B08D0286803F02B
:1018D000E8FC9BE7022385F8BD33012496E7284600
:1018E00000F0BAFCF2E7012490E7026890F8BC33FC
:1018F000012B19D010B50446012380F8BC33836A4C
:10190000012B09D0206803F079F8206803F0BBFCB4
:10191000002084F8BC0310BD8369012BF2D0936BC7
:1019200043F480339363EDE70220704770B50446BB
:101930000D460068066C00EB411303F530639A68AE
:101940002169012911D034498E424ED03DB9C5EBF1
:10195000C50304EB8303D3F81032002B56D0E9B251
:10196000204606F0B5FF002070BD12F0080F09D028
:101970002A498E42F7D912F4004FF4D04FF40042B6
:101980009A60F0E712F0200F02D020229A60EAE776
:1019900012F0280FE7D121498E4206D912F4004FE8
:1019A00003D04FF400429A60DDE7C5EBC50204EBBB
:1019B0008202D2F804121B69C3F31203CB1AC2F8D5
:1019C0001432D2F808320B44C2F8083215B9D2F8F2
:1019D000103223B1E9B2204606F07AFFC3E704F5DE
:1019E0007172012103F0E2FCF4E712F4004F03D01E
:1019F0004FF400429A60B6E712F0200F01D0202287
:101A00009A60E9B2204606F063FFACE704F5717214
:101A1000002103F0CBFCA2E70A31544F0A30544FA7
:101A200038B5044603681D6C03EB4113D3F8081B5B
:101A30000E4A954207D903F5306311F4004F02D0E6
:101A40004FF400429A60204606F03AFF074B9D4251
:101A500002D92369012B01D0002038BD04F5717231
:101A60000121206803F0A2FCF6E700BF0A30544FC2
:101A70002DE9F84F04460568284603F051FC08B1EB
:101A8000BDE8F88F0646206803F019FC0028F7D05F
:101A9000206803F014FC10F0020F04D02268536990
:101AA00003F002035361206803F009FC10F0100FEB
:101AB00014D02268936923F0100393612F6A07F012
:101AC0000F08C7F34343022B00F08580062B00F07C
:101AD000A1802268936943F010039361206803F0AA
:101AE000EEFB10F4002F40F0A780206803F0E7FB26
:101AF00010F4802F40F0E980206803F0E0FB00281C
:101B0000C0F25881206803F0DAFB10F4006F0AD0AD
:101B1000D5F8083813F0010F40F066812268536948
:101B200003F400635361206803F0C9FB10F0006FF9
:101B300015D02268536903F00063536194F8F433BD
:101B4000002B40F05581012184F8F41323685B6D6C
:101B5000C3F38303C4F8F833204600F091FB2068F8
:101B600003F0ADFB10F4805F40F04681206803F085
:101B7000A6FB10F4005F40F09481206803F09FFB07
:101B800010F0080F40F0A581206803F098FB10F4D6
:101B9000801F40F0A781206803F091FB10F4001F24
:101BA00040F0AA81206803F08AFB10F0804F40F0DB
:101BB000AD81206803F083FB10F0040F3FF460AFA9
:101BC00023685D6815F0040F40F0A981226853680E
:101BD0002B43536054E747F6F0731F423FF479AF4D
:101BE0004FEA171BC8EBC80904EB8909C7F30A12AF
:101BF000D9F80812284603F0B1FACBF30A02D9F853
:101C000008321344C9F80832D9F814321A44C9F812
:101C100014225EE7082204F57171284603F09EFA4B
:101C2000C7F30A17C8EBC80204EB8202D2F81432D9
:101C30001F44C2F814724CE7206803F044FB0746C7
:101C4000B04616E005EB48130122C3F8082B4146C5
:101C50002046FFF76BFE1BE005EB48130822C3F894
:101C6000082B41462046FFF7DBFE14E008F101088F
:101C70007F08002F3FF439AF17F0010FF6D05FFA5D
:101C800088F1206803F02FFB814610F0010FD9D1B5
:101C900019F0080FE0D119F0100F04D005EB48132C
:101CA0001022C3F8082B19F0200F04D005EB4813BD
:101CB0002022C3F8082B19F4005FD7D005EB481396
:101CC0004FF40052C3F8082BD0E7206803F003FB61
:101CD0000746B0462AE004F571720121206803F03E
:101CE00065FB5146204606F0FFFD19F0080F04D0B1
:101CF00005EB48130822C3F8082919F0100F04D087
:101D000005EB48131022C3F8082919F0400F04D03E
:101D100005EB48134022C3F8082919F0020F3AD105
:101D200019F0800F41D108F101087F08002F3FF41E
:101D3000E3AE17F0010FF6D05FFA88FA514620683B
:101D400003F0DAFA814610F0010FCED008F00F034D
:101D5000012101FA03F2D5F8343823EA0203C5F869
:101D6000343805EB4813C3F8081923698B42B8D1FE
:101D7000C8EBC80304EB8303596C9A6C0A449A6459
:101D8000B8F1000FADD1C8EBC80304EB83031B6DA2
:101D9000002BA6D19FE74146284602F03BFE05EB0B
:101DA00048130222C3F80829BAE741462046FFF744
:101DB00096FCB8E7D5F8043823F00103C5F80438D9
:101DC00094F8F433012B08D0204606F0CBFD2268AE
:101DD000536903F00043536194E6002184F8F4133F
:101DE000204600F04DFAF2E7204606F0A3FD95E606
:101DF000204606F09FFDB2E605F500677B6823F0FC
:101E000001037B601021206802F004FE6368B34286
:101E10001BD905EB46134FF67F31C3F80819D3F8E9
:101E2000002922F40012C3F80029C3F8081BD3F8D4
:101E3000002B22F40012C3F8002BD3F8002B42F041
:101E40000062C3F8002B0136E0E7FB6943F00113A1
:101E5000FB61236BDBB1D7F8843043F00B03C7F889
:101E600084307B6C43F00B037B64D5F8003823F49B
:101E7000FE63C5F8003804F57172217C206803F018
:101E800095FA2268536903F4805353616EE67A69C8
:101E900042F22B0313437B613B6943F00B033B612D
:101EA000E3E7206803F072FA206802F0C9FEE06000
:101EB000256800F097FF0146227B284602F02CFDA2
:101EC000204606F022FD2268536903F40053536153
:101ED00053E6204606F013FD2268536903F0080319
:101EE000536151E60021204606F048FD22685369FF
:101EF00003F4801353614EE60021204606F038FDBE
:101F00002268536903F4001353614BE6204606F040
:101F10003BFD2268536903F08043536149E6204644
:101F200006F038FD52E690F8BC33012B0DD010B509
:101F30000446012380F8BC3380F83810006803F0B1
:101F400092F9002084F8BC0310BD0220704738B518
:101F500005468C4611F0800F29D101F00F0ECEEB13
:101F6000CE04A40004F5FC740444211DCEEBCE0E77
:101F700000EB8E0E00208EF8FD010CF00F0C81F8A6
:101F800000C08A60CB704A780AB1A1F806C0022B63
:101F90001DD095F8BC33012B1CD0012385F8BC3330
:101FA000286802F05DFE002085F8BC0338BD01F012
:101FB0000F00C0EBC0018900383129440431C0EB67
:101FC000C00005EB8000012480F83D40D5E70023E8
:101FD0000B71DEE70220E9E710B504460A4611F06E
:101FE000800F20D101F00F00C0EBC0039B0003F570
:101FF000FC732344191DC0EBC00004EB80000023D8
:1020000080F8FD3102F00F020A7094F8BC33012B06
:1020100019D0012384F8BC33206802F06FFE002041
:1020200084F8BC0310BD01F00F00C0EBC0039B009F
:1020300038332344191DC0EBC00004EB800001239A
:1020400080F83D30DEE70220ECE710B501F00F0428
:10205000C4EBC401890001F5FC7101440431C4EBF7
:10206000C40C00EB8C0CCCF80822CCF81032002306
:10207000CCF814328CF8FD318CF8FC410369012B4B
:1020800006D064B9DAB2006802F0A8FE002010BDE4
:10209000C4EBC40C00EB8C0CCCF80C22F1E7DAB2E8
:1020A000006802F041FFF1E710B501F00F04C4EB46
:1020B000C4018900383101440431C4EBC40C00EB85
:1020C0008C0CCCF84820CCF850300023CCF854309D
:1020D00001238CF83D308CF83C400369012B06D07D
:1020E00064B9DAB2006802F079FE002010BDC4EBDA
:1020F000C40C00EB8C0CCCF84C20F1E7DAB2006891
:1021000002F012FFF1E738B501F00F054268954281
:1021100039D804460B4611F0800F1FD1C1EBC10125
:10212000890001F5FC7101440431C3EBC30300EBEA
:102130008303002283F8FD2101238B700D7094F836
:10214000BC33012B21D0012384F8BC33206803F079
:102150002FF88DB1002084F8BC0338BDC5EBC50154
:102160008900383101440431C5EBC50300EB83031A
:10217000012283F83D20DFE704F57172217C20689D
:1021800003F014F9E6E70120E7E70220E5E701F0B4
:102190000F034268934231D810B5044611F0800F06
:1021A0001ED1C3EBC301890001F5FC710144043168
:1021B000C3EBC30200EB8202002082F8FD01002283
:1021C0008A700B7094F8BC33012B19D0012384F86A
:1021D000BC33206803F019F8002084F8BC0310BD5C
:1021E000C3EBC3018900383101440431C3EBC3029E
:1021F00000EB8202012082F83D00E0E701207047F9
:102200000220ECE710B40468606A31B940EA024089
:10221000A06200205DF8044B70478C46A36A00EB77
:102220001340002308E003F1400104EB81014968F9
:1022300000EB11400133DBB20CF1FF318B42F2D3E2
:1022400040EA02400CF13F0104EB81014860E0E705
:102250000368596200207047034602680121C0F8F4
:10226000FC13002083F8F403936943F00063936147
:10227000516D024B0B435365704700BF03000010C4
:1022800070470000134BDB6813F0040F07D1114BAC
:10229000DB6803F0070383421AD00120704710B5B2
:1022A0000C4AD36823F007031843D060FFF77CF88B
:1022B0000446084B5B6813F4005F07D1FFF774F81E
:1022C000001BB0F57A7FF4D9012000E0002010BD9A
:1022D0000020704700480258024AD36843F08073D8
:1022E000D360704700480258002800F0188338B5C2
:1022F0000446036813F0010F25D0944A136903F0D4
:102300003803926A102B15D0182B0FD06368B3F5E1
:10231000803F3FD0002B53D18C4B1A6822F480327F
:102320001A601A6822F480221A6038E002F0030270
:10233000022AEBD1854B1B6813F4003F03D063687E
:10234000002B00F0EE82236813F0020F00F0A18052
:102350007E4A1369926A13F038035AD0182B55D06D
:10236000E368002B00F0DE8078490A6822F0190249
:1023700013430B60FFF718F80546744B1B6813F006
:10238000040F40F0AD80FFF70FF8401B0228F4D98E
:102390000320CDE26D4A136843F480331360636811
:1023A0002BB3FFF701F80546684B1B6813F4003F99
:1023B000C9D1FEF7F9FF401B6428F5D90320B7E225
:1023C000B3F5A02F09D0614B1A6822F480321A604D
:1023D0001A6822F480221A60E1E75C4B1A6842F422
:1023E00080221A601A6842F480321A60D7E7FEF73A
:1023F000DBFF0546554B1B6813F4003FA3D0FEF7E7
:10240000D3FF401B6428F5D9032091E212F0030F9B
:10241000A6D14E4B1B6813F0040F03D0E368002BCA
:1024200000F08182494A136823F01903E1680B43E5
:102430001360FEF7B9FF0546444B1B6813F0040F09
:1024400006D1FEF7B1FF401B0228F5D903206FE249
:10245000FEF7C4FF41F20303984212D82269402AD2
:1024600007D03A494B6823F47C3343EA02334B608C
:102470000FE0364A536823F47C3343F4003353604F
:1024800007E0324A536823F0FE43216943EA0163BF
:102490005360236813F0100F00F088802B4A1369F3
:1024A00003F03803926A082B56D0182B50D0E369FA
:1024B000002B00F0B880254A136843F080031360B6
:1024C000FEF772FF0546214B1B6813F4807F40F036
:1024D0008880FEF769FF401B0228F4D9032027E219
:1024E000FEF77CFF41F20303984212D82269402A8A
:1024F00007D016494B6823F47C3343EA02334B6020
:10250000C7E7124A536823F47C3343F40033536023
:10251000BFE70E4A536823F0FE43216943EA016393
:102520005360B6E7094A136823F001031360FEF70E
:102530003BFF0546054B1B6813F0040FA9D0FEF7BF
:1025400033FF401B0228F5D90320F1E10044025873
:1025500002F00302012AAAD1A14B1B6813F4807F69
:1025600003D0E369802B40F0E081FEF737FF41F2B2
:102570000303984212D8226A202A07D098494B6850
:1025800023F0F84343EA82634B600FE0944A5368B8
:1025900023F0F84343F08043536007E0904AD36848
:1025A00023F07C53216A43EA0163D360236813F06C
:1025B000080F60D06369002B49D0894A536F43F0FC
:1025C00001035367FEF7F0FE0546854B5B6F13F082
:1025D000020F50D1FEF7E8FE401B0228F5D9032078
:1025E000A6E1FEF7FBFE41F20303984212D8226AED
:1025F000202A07D07A494B6823F0F84343EA8263E4
:102600004B60D3E7764A536823F0F84343F08043A6
:102610005360CBE7724AD36823F07C53216A43EAC4
:102620000163D360C2E76E4A136823F0800313602E
:10263000FEF7BAFE05466A4B1B6813F4807FB5D0DF
:10264000FEF7B2FE401B0228F5D9032070E1644A70
:10265000536F23F001035367FEF7A6FE0546604B58
:102660005B6F13F0020F06D0FEF79EFE401B0228A0
:10267000F5D903205CE1236813F0200F29D0A3696A
:102680009BB1574A136843F480531360FEF78CFEE6
:102690000546534B1B6813F4005F1AD1FEF784FE06
:1026A000401B0228F5D9032042E14D4A136823F468
:1026B00080531360FEF778FE0546494B1B6813F400
:1026C000005F06D0FEF770FE401B0228F5D90320FC
:1026D0002EE1236813F0040F21D1636A002B00F070
:1026E00026813F4A126902F03802182A00F0EE8073
:1026F000022B79D03A4A136823F080731360FEF7F7
:1027000053FE0446364B1B6813F0007F00F0DC805C
:10271000FEF74AFE001B0228F4D9032008E1314AE3
:10272000136843F480731360FEF73EFE05462D4B9D
:102730001B6813F4807F06D1FEF736FE401B642829
:10274000F5D90320F4E0A368012B0AD00BBB244B7E
:102750001A6F22F001021A671A6F22F004021A6738
:1027600004E01F4A136F43F001031367A36833B3F8
:10277000FEF71AFE05461A4B1B6F13F0020FACD181
:10278000FEF712FE401B41F288339842F3D9032032
:10279000CEE0052B09D0124B1A6F22F001021A6706
:1027A0001A6F22F004021A67E0E70D4B1A6F42F02D
:1027B00004021A671A6F42F001021A67D6E7FEF7A1
:1027C000F3FD0546064B1B6F13F0020F85D0FEF795
:1027D000EBFD401B41F288339842F3D90320A7E078
:1027E0000044025800480258594A136823F0807385
:1027F0001360FEF7D9FD0546554B1B6813F0007FAB
:1028000006D0FEF7D1FD401B0228F5D903208FE04A
:102810004F4B996A4F4A0A40A16AE06A41EA0011A7
:102820000A439A62226B013AC2F30802616B0139D2
:10283000490289B20A43A16B0139090401F4FE017E
:102840000A43E16B0139090601F0FE410A431A63AC
:10285000DA6A22F00102DA62596B3F4A0A40A16C3F
:1028600042EAC1025A63DA6A22F00C02216C0A437E
:10287000DA62DA6A22F00202616C0A43DA62DA6A28
:1028800042F48032DA62DA6A42F40032DA62DA6AF8
:1028900042F48022DA62DA6A42F00102DA621A68ED
:1028A00042F080721A60FEF77FFD0446284B1B68D9
:1028B00013F0007F06D1FEF777FD001B0228F5D943
:1028C000032035E0002033E0002031E0204A916A07
:1028D000106B012B2DD001F00303A26A93422AD181
:1028E000C1F30511E36A994227D1C0F30802236BB3
:1028F000013B9A4223D1C0F34622636B013B9A42CB
:102900001FD1C0F30642A36B013B9A421BD1C0F317
:102910000660E36B013B984217D1002008E00120DC
:102920007047012004E0012002E0012000E00020C7
:1029300038BD0120FCE70120FAE70120F8E701207B
:10294000F6E70120F4E70120F2E70120F0E700BFFD
:10295000004402580CFCFFFF0700FFFF744B1B698B
:1029600003F03803102B00F0DE80182B10D00BB1D1
:10297000704870476E4B1B6813F0200F00F0D58035
:102980006B4B1868C0F3C1006B4B23FA00F0704723
:1029900010B4674A916A01F00301946AC4F3051008
:1029A000D36A03F0010C536BC3F3CC030CFB03F3AA
:1029B00007EE903AF8EE677A14F47C7F00F093808B
:1029C000012965D0022900F09180E1B107EE100ADB
:1029D000F8EE476A9FED596A86EE267A544B1B6BD8
:1029E000C3F3080306EE903AF8EE666A9FED546A68
:1029F00067EE867A76EEA77AF7EE006A77EEA67A29
:102A000027EE277A60E0136813F0200F23D01146D9
:102A10001268C2F3C102484BD34007EE103AF8EEF9
:102A2000476A07EE100AB8EE476A86EE867A0B6BA5
:102A3000C3F3080306EE903AF8EE666A9FED406A2B
:102A400067EE867A76EEA77AF7EE006A77EEA67AD8
:102A500027EE277A38E007EE100AF8EE476A9FED76
:102A6000396A86EE267A324B1B6BC3F3080306EEF7
:102A7000903AF8EE666A9FED326A67EE867A76EEF5
:102A8000A77AF7EE006A77EEA67A27EE277A1BE0A0
:102A900007EE100AF8EE476A9FED286A86EE267A5E
:102AA000234B1B6BC3F3080306EE903AF8EE666AFD
:102AB0009FED236A67EE867A76EEA77AF7EE006AD4
:102AC00077EEA67A27EE277A194B1B6BC3F34623C2
:102AD000013307EE903AF8EE677AC7EE276AFCEE0C
:102AE000E67A17EE900A5DF8044B704707EE100A7D
:102AF000F8EE476A9FED146A86EE267A0C4B1B6B44
:102B0000C3F3080306EE903AF8EE666A9FED0C6A8E
:102B100067EE867A76EEA77AF7EE006A77EEA67A07
:102B200027EE277AD0E7094870470348704700BF6F
:102B30000044025800093D000090D0030024744A6C
:102B4000000000390024744C20BCBE4B40787D014D
:102B5000002800F0328170B50D4604469B4B1B687F
:102B600003F00F038B420BD2984A136823F00F0334
:102B70000B431360136803F00F038B4240F01F8177
:102B8000236813F0040F0CD02269914B9B6903F06A
:102B900070039A4205D98E498B6923F070031A435A
:102BA0008A61236813F0080F0CD06269884BDB69D7
:102BB00003F070039A4205D98549CB6923F070036D
:102BC0001A43CA61236813F0100F0CD0A269804B1E
:102BD000DB6903F4E0639A4205D97D49CB6923F4AC
:102BE000E0631A43CA61236813F0200F0CD0E26936
:102BF000774B1B6A03F070039A4205D974490B6A3C
:102C000023F070031A430A62236813F0020F0CD0FA
:102C1000E2686F4B9B6903F00F039A4205D96C4938
:102C20008B6923F00F031A438A61236813F0010FA5
:102C300041D0674A936923F47063A1680B439361A1
:102C40006368022B0AD0032B27D0012B2CD0604ABB
:102C5000126812F0040F06D10120ADE0126812F4E0
:102C6000003F00F0AE805A490A6922F00702134380
:102C70000B61FEF799FB0646554B1B6903F03803C1
:102C80006268B3EBC20F16D0FEF78EFB801B41F2D9
:102C900088339842F0D903208EE04D4A126812F032
:102CA000007FE0D1012087E0494A126812F4807F5A
:102CB000D9D1012080E0236813F0020F0CD0E26824
:102CC000434B9B6903F00F039A4205D240498B693D
:102CD00023F00F031A438A613C4B1B6803F00F0378
:102CE000AB420AD9394A136823F00F032B43136010
:102CF000136803F00F03AB4265D1236813F0040F90
:102D00000CD02269324B9B6903F070039A4205D2C2
:102D10002F498B6923F070031A438A61236813F0EB
:102D2000080F0CD062692A4BDB6903F070039A42EA
:102D300005D22749CB6923F070031A43CA6123687F
:102D400013F0100F0CD0A269214BDB6903F4E06390
:102D50009A4205D21E49CB6923F4E0631A43CA6143
:102D6000236813F0200F0CD0E269194B1B6A03F0A3
:102D700070039A4205D216490B6A23F070031A4376
:102D80000A62FFF7EBFD12498B69C3F30323114A73
:102D9000D35C03F01F03D8408B6903F00F03D35CAF
:102DA00003F01F0320FA03F30B4A13600B4B186068
:102DB0000B4B1868FEF79EF970BD0120704701208B
:102DC000FAE70120F8E70120F6E700BF00200052F3
:102DD00000440258249100083800002034000020EC
:102DE0004000002008B5FFF7B9FD0B4A9369C3F313
:102DF00003230A49CB5C03F01F0320FA03F3926913
:102E000002F00F02885C00F01F0023FA00F0044A71
:102E10001060044A136008BD004402582491000861
:102E2000380000203400002008B5FFF7DBFF054B19
:102E3000DB69C3F30223044AD35C03F01F03D840C9
:102E400008BD00BF00440258249100083F230360DE
:102E5000114B1A6902F0070242609A6902F470622B
:102E600082609A6902F00F02C2609A6902F07002F1
:102E70000261DA6902F070024261DA6902F4E0622A
:102E800082611B6A03F07003C361044B1B6803F08B
:102E90000F030B60704700BF00440258002000522F
:102EA000404B9B6A03F00303032B79D070B50546B2
:102EB0000E463C4A136823F080631360FEF774FAF1
:102EC0000446384B1B6813F0006F06D0FEF76CFA0F
:102ED000031B022BF5D9032070BD324B9A6A22F4F2
:102EE0007C32296842EA01329A626A68013AC2F386
:102EF0000802A9680139490289B20A43E96801391F
:102F0000090401F4FE010A4329690139090601F0A7
:102F1000FE410A439A63DA6A22F0C00269690A43F1
:102F2000DA62DA6A22F02002A9690A43DA62DA6A0E
:102F300022F01002DA62D96B1B4A0A40E96942EAC0
:102F4000C102DA63DA6A42F01002DA62C6B91A46DE
:102F5000DB6A43F40023D362124A136843F08063B0
:102F60001360FEF721FA04460E4B1B6813F0006F46
:102F700014D1FEF719FA001B0228F5D90320ABE79C
:102F8000012E05D0074AD36A43F40013D362E3E766
:102F9000044AD36A43F48013D362DDE700209BE741
:102FA00001207047004402580700FFFF404B9B6A16
:102FB00003F00303032B79D070B505460E463C4A57
:102FC000136823F080531360FEF7EEF90446384B84
:102FD0001B6813F0005F06D0FEF7E6F9031B022B17
:102FE000F5D9032070BD324B9A6A22F07C722968B1
:102FF00042EA01529A626A68013AC2F30802A96879
:103000000139490289B20A43E9680139090401F426
:10301000FE010A4329690139090601F0FE410A430C
:103020001A64DA6A22F4406269690A43DA62DA6A87
:1030300022F40072A9690A43DA62DA6A22F4807221
:10304000DA62596C1B4A0A40E96942EAC1025A64D1
:10305000DA6A42F48072DA62C6B91A46DB6A43F46D
:103060008003D362124A136843F080531360FEF763
:103070009BF904460E4B1B6813F0005F14D1FEF75A
:1030800093F9001B0228F5D90320ABE7012E05D0E8
:10309000074AD36A43F08073D362E3E7044AD36AF2
:1030A00043F40003D362DDE700209BE70120704773
:1030B000004402580700FFFFF8B50446036813F008
:1030C000006F30D0436EB3F5001F26D00ED8EBB1A1
:1030D000B3F5801F07D102210430FFF7E1FE05465A
:1030E00045B12E4621E0012635461EE0B3F5401FCE
:1030F00009D10025954A136D23F44013616E0B43EB
:103100001365002611E0012635460EE08F4AD36A8A
:1031100043F40033D3620025ECE702212430FFF7AB
:1031200045FF0546DCE700263546236813F4807F1B
:1031300014D0636D042B30D8DFE803F00322280895
:103140000800824AD36A43F40033D36245BB7F4A06
:10315000136D23F00703616D0B431365236813F4AC
:10316000007F2FD0A36D802B49D01ED8002B40D0DC
:10317000402B17D10021201DFFF792FE054619E0D4
:103180000021201DFFF78CFE0546DFE7002104F13A
:103190002400FFF70BFF0546D8E701263546DDE79B
:1031A0002E46DBE7012635460CE0C02B02D0B3F5F6
:1031B000807F1BD155BB654A136D23F4E073A16D6D
:1031C0000B431365236813F4806F45D0D4F8A43003
:1031D000B3F5800F38D01ED883B3B3F5001F17D1D5
:1031E0000021201DFFF75CFE05461AE0012635464A
:1031F000E8E7564AD36A43F40033D362DAE70021A2
:1032000004F12400FFF7D2FE0546D3E72E46D9E7A6
:103210000126354620E0B3F5C00F02D0B3F5000F0C
:1032200009D1C5B9494A936D23F46003D4F8A410B9
:103230000B43936510E0012635460DE0434AD36AFF
:1032400043F40033D362ECE7002104F12400FFF7DC
:10325000ADFE0546E5E72E46236813F4006F23D044
:10326000D4F8A830B3F1007F41D00DD8002B38D06E
:10327000B3F1807F05D10021201DFFF711FE054627
:1032800008E0012635460FE0B3F1407F02D0B3F1EC
:10329000806F23D1002D31D12C4A936D23F0E06350
:1032A000D4F8A8100B439365236813F0007F2ED049
:1032B000A36C202B3FD026D833B1102B20D1234A2A
:1032C000D36A43F40033D362002D3AD11F4AD36C42
:1032D00023F03003A16C0B43D36418E0012635467C
:1032E000E2E71A4AD36A43F40033D362D2E70021FB
:1032F00004F12400FFF75AFE0546CBE72E46D3E73C
:103300000126354603E0302BDED001263546236802
:1033100013F4805F2BD0E36DB3F5005F4CD017D86A
:10332000002B43D0B3F5805F0DD10021201DFFF7A6
:10333000B7FD054612E00221201DFFF7B1FD05464D
:10334000C2E72E46E3E70126354610E00044025866
:10335000B3F5405F02D0B3F5804F24D1002D32D1B8
:10336000754A136D23F4E043E16D0B431365236845
:1033700013F4005F37D0236EB3F5003F51D027D848
:103380003BB1B3F5803F20D10121201DFFF788FD1F
:103390000546002D4CD1684A136D23F4E023216EBD
:1033A0000B4313651FE001263546E0E7624AD36A06
:1033B00043F40033D362D1E7002104F12400FFF786
:1033C000F5FD0546CAE72E46D1E7012635460AE057
:1033D000B3F5802FDDD0B3F5A02FDAD0B3F5403FA1
:1033E000D7D001263546236813F4804F30D0D4F867
:1033F000AC30B3F1005F44D01FD83BB1B3F1805F74
:1034000018D10121201DFFF74BFD0546002D3FD1AE
:10341000494A936D23F0E043D4F8AC100B43936515
:1034200016E0012104F12400FFF7C0FD0546B0E7D6
:103430002E46D8E7012635460AE0B3F1804FE5D0A5
:10344000B3F1A04FE2D0B3F1405FDFD001263546A3
:10345000236813F4004F09D0E36EB3F1805F19D0F5
:10346000B3F1005F24D0D3B101263546236813F0B1
:10347000807F32D0636C032B59D8DFE803F026211C
:103480005226012104F12400FFF790FD0546BDE717
:103490002E46DDE7284AD36A43F40033D3626DB980
:1034A000254A136D23F04053E16E0B431365DDE7AE
:1034B0000121201DFFF7F4FC0546F0E72E46D5E775
:1034C0001D4AD36A43F40033D3629DBB1A4AD36CBE
:1034D00023F00303616C0B43D364236813F4800F60
:1034E0002CD1236813F0010F00F0A380A36F282BC9
:1034F00000F29D80DFE803F08B9B9B9B9B9B9B9B3B
:10350000869B9B9B9B9B9B9B949B9B9B9B9B9B9B27
:103510008B9B9B9B9B9B9B9B8B9B9B9B9B9B9B9B1B
:103520008B000221201DFFF7BBFC0546CDE70126DD
:103530003546D2E72E46D0E7004402588F4A13683A
:1035400043F480731360FDF72FFF07468B4B1B6816
:1035500013F4807F05D1FDF727FFC01B6428F5D940
:103560000325002D4AD1864B1B6FD4F8B020534061
:1035700013F4407F0CD0824B1A6F22F44072196F03
:1035800041F480311967196F21F4803119671A6786
:10359000D4F8B030B3F5807F15D08DBBD4F8B030FF
:1035A00003F44072B2F5407F1ED0754A136923F4CC
:1035B0007C53136172490B6FD4F8B020C2F30B0235
:1035C00013430B678DE7FDF7EFFE07466C4B1B6F50
:1035D00013F0020FE1D1FDF7E7FEC01B41F2883383
:1035E0009842F3D90325D8E76548026922F47C5252
:1035F000644901EA131313430361DBE72E4670E7C6
:103600002E466EE70121201DFFF74AFC0546E5B96D
:103610005B4A536D23F03803A16F0B43536508E0F9
:10362000012104F12400FFF7C1FC0546EFE7012664
:103630003546236813F0020F16D0636F052B27D889
:10364000DFE803F00A051F0A0A0A2E46F1E7012106
:10365000201DFFF725FC0546EDB9494A536D23F0BF
:103660000703616F0B435365236813F0040F22D0E7
:10367000D4F89030052B43D8DFE803F0140F3B1447
:103680001414012104F12400FFF790FC0546E3E740
:1036900001263546E8E72E46E6E70121201DFFF723
:1036A000FFFB05467DBB364A936D23F00703D4F834
:1036B00090100B439365236813F0200F33D0D4F898
:1036C0008C30B3F1005F4CD022D83BB1B3F1805FB6
:1036D0001BD10021201DFFF7E3FB0546002D47D13C
:1036E000274A536D23F0E043D4F88C100B43536505
:1036F00019E0012104F12400FFF758FC0546D1E749
:1037000001263546D7E72E46D5E7012635460AE09D
:10371000B3F1804FE2D0B3F1A04FDFD0B3F1405FFF
:10372000DCD001263546236813F0400F37D0D4F89B
:103730009830B3F5006F52D026D83BB1B3F5806F07
:1037400018D10021201DFFF7ABFB0546002D4DD100
:103750000B4A936D23F4E053D4F898100B43936510
:103760001DE0022104F12400FFF720FC0546B5E727
:103770002E46D8E70126354611E000BF0048025822
:1037800000440258CFFFFF00B3F5805FDED0B3F5F1
:10379000A05FDBD0B3F5406FD8D001263546236853
:1037A00013F0800F32D0D4F89C30B3F5804F00F086
:1037B0009D8020D83BB1B3F5005F19D10021201DB9
:1037C000FFF76EFB0546002D40F09780A54A936DEC
:1037D00023F46043D4F89C100B43936516E0022158
:1037E00004F12400FFF7E2FB0546AFE72E46D6E7DB
:1037F000012635460AE0B3F5004FE4D0B3F5204F7B
:10380000E1D0B3F5C04FDED001263546236813F072
:10381000080F0CD0D4F88030B3F5805F6FD0914A98
:10382000536D23F44053D4F880100B435365236841
:1038300013F0100F0CD0D4F89430B3F5807F67D01C
:10384000884A936D23F44073D4F894100B43936526
:10385000236813F4002F0BD0D4F8A030B3F5803FC9
:103860006ED0B3F5003F61D0002B5AD0012635460B
:10387000236813F4802F0CD0D4F88430B3F5001FE4
:1038800076D0B3F5401F69D0B3F5801F61D0012613
:103890003546236813F4803F07D0E36C002B70D0CB
:1038A000B3F5803F7BD001263546236813F0005FD7
:1038B0007DD1236813F4003F00F08680E36FB3F5F9
:1038C000807F00F0C6807CD9B3F5007F03D0B3F5CC
:1038D000407F40F0BC80002D40F0C180614A536DB4
:1038E00023F44073E16F0B4353656DE0022104F153
:1038F0002400FFF75BFB054665E72E4686E70221BD
:1039000004F12400FFF752FB002888D0012686E747
:10391000022104F12400FFF749FB002890D0012682
:103920008EE70021201DFFF7BBFA05467DB94D4A01
:10393000936D23F44033D4F8A0100B43936597E7BD
:10394000022104F12400FFF731FB0546EEE72E4685
:103950008EE7444AD36A43F40033D3627DB9414AC7
:10396000536D23F44013D4F884100B43536590E750
:10397000012104F12400FFF719FB0546EEE72E466E
:1039800087E7384AD36A43F40033D3626DB9354AC6
:10399000D36C23F48033E16C0B43D36485E70221BD
:1039A000201DFFF77DFA0546F0E72E467DE7022150
:1039B00004F12400FFF7FAFA00283FF47AAF012659
:1039C00077E7002B87D00126236813F4801F06D0E9
:1039D000244A136D23F00043216F0B4313652368C2
:1039E00013F0805F07D01F4A136923F48043D4F893
:1039F000B4100B431361236813F4001F06D0194A57
:103A0000136D23F08073A16E0B431365236813F0CD
:103A1000804F09D0134B1A6922F400421A611A69C7
:103A2000D4F8B8100A431A612368002B1CDB236802
:103A300013F4000F07D00B4A536D23F44003D4F85E
:103A400088100B43536506B101263046F8BD0126A8
:103A5000BAE7044AD36A43F40033D3623BE72E4605
:103A6000B2E700BF00440258034AD36C23F040532E
:103A7000216D0B43D364DAE70044025810B40268A6
:103A80005369916941F00801916101688A6942F0C6
:103A900010028A6101680A6822F001020A60016866
:103AA0000C69294A22400A6101688A6822F440426E
:103AB0008A6090F88120D2B2042A0DD013F0200F32
:103AC0000AD0D0F8842042F08002C0F88420016837
:103AD0008A6942F020028A6190F88120D2B2032ADA
:103AE0000DD013F0400F0AD0D0F8842042F0040229
:103AF000C0F8842001688A6942F040028A6113F4A8
:103B0000007F0AD0D0F8842042F00102C0F884205F
:103B100001688A6942F400728A6113F4807F0AD0D6
:103B2000D0F8843043F00803C0F884300268936909
:103B300043F4807393610023A0F86230A0F86A30E8
:103B40005DF8044B704700BF90FCFFFFC36B5B093F
:103B5000C0680830C00803FB000070472DE9F04141
:103B600007460E4615469846069C00E0C4B13B68E1
:103B70005B6936EA03030CBF4FF0010C4FF0000CF9
:103B8000AC450AD1FDF710FCA0EB0800A042EDD334
:103B9000B4F1FF3FEAD0032000E00020BDE8F0814F
:103BA0000320FBE7002800F0A38070B50446002343
:103BB00083620568524B534E9D4218BFB54214BFF5
:103BC0000126002607D0A3F574439D4203D0C368A5
:103BD0000F2B00F28F802046FFF7B8FF2EB14A4B23
:103BE0009D4202D0082800F28780454A454B9D42FD
:103BF00018BF954203D003F580639D4201D1102880
:103C00007CD894F88130002B59D0022384F881307D
:103C10002268136823F00103136021688A6802F4A4
:103C2000F812A369B3F1806F4FD0E369A16A0B4327
:103C30001343E26B1343E16822680B439360636BA9
:103C4000626A1343A26B1343A269134322691343AD
:103C500062691343226A134362681343E26C13439D
:103C6000A2681343A26C1343A16D22680B43D36077
:103C700063686BB92268936823F4C05343F400630C
:103C800093602268936823F4C06343F48063936075
:103C90002268136D23F001031365636813F4800F2A
:103CA00006D02268D36823F00043616D0B43D360D4
:103CB0000020C4F88400012384F8813070BD84F8AA
:103CC00080302046FDF78AF99FE76368B3F5800FDF
:103CD00006D0002BA9D1A36BB3F1805FA5D102E080
:103CE000A06B0028F5D10B6843F480530B609CE770
:103CF000012070470120E1E70120DFE70120DDE737
:103D00000030014000380040003C00402DE9F04701
:103D100082B01D46D0F8008090F88030012B00F072
:103D2000538104468A469146012380F88030FDF78E
:103D30003BFB074694F88160F6B2012E32D1B9F10F
:103D4000000F18BFBAF1000F34D0032384F881307C
:103D50000023C4F88430C4F85CA0A4F86090A4F8F0
:103D600062906366A4F86830A4F86A3063672367DA
:103D7000A368B3F5C02F21D023685968934A0A403D
:103D800049EA02025A602268136843F00103136093
:103D90006368B3F5800F17D0E3680F2B23D8072B88
:103DA00059D8B8E0002384F880300226304602B0AB
:103DB000BDE8F087002384F88030F7E722681368B5
:103DC00043F400631360D7E72268136843F4007379
:103DD0001360E1E7FDF7E8FAC01BA84202D3B5F192
:103DE000FF3F19D1C5B1B4F862309BB2002B00F08F
:103DF000CD8023685A6912F0020FEBD0E26D126891
:103E00001A62E36D0433E365B4F8622092B2013ABA
:103E100092B2A4F86220E6E72046FFF72FFE0023C7
:103E200084F88030D4F8843043F48073C4F884304C
:103E3000012384F881300326B8E7E36D1B88A8F8D6
:103E40002030E36D0233E365B4F862309BB2013B8E
:103E50009BB2A4F86230B4F862309BB2002B00F041
:103E600095802268536913F0020F15D0B4F86230C0
:103E70009BB2012BE1D9E36B002BDED0E36D1B6815
:103E80001362E36D0433E365B4F862309BB2023B26
:103E90009BB2A4F86230DEE7FDF786FAC01BA842A9
:103EA00002D3B5F1FF3F01D1002DD4D12046FFF759
:103EB000E5FD002384F88030D4F8843043F4807327
:103EC000C4F88430012384F8813003266EE7B4F807
:103ED00062309BB2012B10D9E36B73B1E36D1B8889
:103EE000A8F82030E36D0233E365B4F862309BB28A
:103EF000023B9BB2A4F862300DE0E36D1B7882F8C0
:103F00002030E36D0133E365B4F862309BB2013BCE
:103F10009BB2A4F86230B4F862309BB2002B35D06B
:103F20002268536913F0020F15D0B4F862309BB2C7
:103F3000032BCCD9E36B402BC9D9E36D1B6813620B
:103F4000E36D0433E365B4F862309BB2043B9BB28B
:103F5000A4F86230DFE7FDF727FAC01BA84202D3BE
:103F6000B5F1FF3F01D1002DD5D12046FFF786FDE9
:103F7000002384F88030D4F8843043F48073C4F88C
:103F80008430012384F8813003260FE700953B46F7
:103F9000002208212046FFF7E1FD28B1D4F8843043
:103FA00043F02003C4F884302046FFF767FD002368
:103FB00084F88030012384F88130D4F88430002BD9
:103FC0007FF4F4AE0026F1E60226EFE60000FFFFE4
:103FD0002DE9F04782B01D460A9ED0F800A090F867
:103FE0008030012B00F00082044688469146012370
:103FF00080F88030FDF7D8F9074694F88130DBB2BD
:104000006268012B07D0B2F5800F3DD1A268002A6B
:104010003AD1042B38D1B9F1000F18BFB8F1000F15
:1040200039D0002D37D094F88130DBB2042B02D088
:10403000052384F881300023C4F88430C4F86490E8
:10404000A4F86A50A4F86850C4F85C80A4F86250E0
:10405000A4F860502367636722685168A3F5803332
:104060000B402B4353602268136843F00103136035
:104070006368B3F5800F13D0E3680F2B68D8072B64
:1040800000F2E780A84634E1002384F88030022063
:1040900002B0BDE8F087002384F880300120F7E704
:1040A0002268136843F400731360E5E723685969D5
:1040B00048F20802114213D0B8F1000F10D0626E1E
:1040C0001B6B1360636E04336366B4F86A309BB293
:1040D000013B9BB2A4F86A30B4F86A801FFA88F8F2
:1040E000FDF762F9C01BB04202D3B6F1FF3F1ED10B
:1040F000EEB145EA08039BB2002B00F0598123681A
:104100005A6912F0020FD1D0002DCFD0E26D1268A3
:104110001A62E36D0433E365B4F862309BB2013B8D
:104120009BB2A4F86230B4F86250ADB2BEE720464C
:10413000FFF7A4FC002384F88030D4F8843043F4E3
:104140008073C4F88430012384F8813003209FE712
:10415000A846CEE7E36D1B88AAF82030E36D023352
:10416000E365B4F862309BB2013B9BB2A4F86230C5
:10417000B4F86250ADB223685A6912F4604F17D098
:10418000B8F1000F14D05A6912F4004F3DD0626E9E
:104190001B6B1360636E04336366B4F86A309BB2C2
:1041A000023B9BB2A4F86A30B4F86A801FFA88F820
:1041B000FDF7FAF8C01BB04202D3B6F1FF3F37D18A
:1041C000002E35D045EA08039BB2002B00F0F080AA
:1041D00023685A6912F0020FCDD0002DCBD0012DEB
:1041E000B8D9E26B002AB5D0E26D12681A62E36DAD
:1041F0000433E365B4F862309BB2023B9BB2A4F88F
:104200006230B4F86250ADB2B5E7636EBAF83020F0
:104210001A80636E02336366B4F86A309BB2013B66
:104220009BB2A4F86A30B4F86A801FFA88F8BFE736
:104230002046FFF723FC002384F88030D4F8843034
:1042400043F48073C4F88430012384F88130032060
:104250001EE7A846B6E7012D13D9E26B8AB1E36DDC
:104260001B88AAF82030E36D0233E365B4F86230AE
:104270009BB2023B9BB2A4F86230B4F86250ADB27C
:1042800010E0E26D127883F82020E36D0133E365DE
:10429000B4F862309BB2013B9BB2A4F86230B4F830
:1042A0006250ADB223685A6912F4604F17D0B8F16A
:1042B000000F14D05A6912F4004F3CD0626E1B6B91
:1042C0001360636E04336366B4F86A309BB2043BD8
:1042D0009BB2A4F86A30B4F86A801FFA88F8FDF738
:1042E00063F8C01BB04202D3B6F1FF3F4FD1002E9E
:1042F0004DD045EA08039BB2002B59D023685A6978
:1043000012F0020FCED0002DCCD0032DA3D9E26B3A
:10431000402AA0D9E26D12681A62E36D0433E365A6
:10432000B4F862309BB2043B9BB2A4F86230B4F89C
:104330006250ADB2B6E75A6902F4C042B2F5005F0E
:1043400012D9636EBAF830201A80636E0233636646
:10435000B4F86A309BB2023B9BB2A4F86A30B4F85E
:104360006A801FFA88F8BAE7626E93F830301370EB
:10437000636E01336366B4F86A309BB2013B9BB253
:10438000A4F86A30B4F86A801FFA88F8A7E72046D4
:10439000FFF774FB002384F88030D4F8843043F4B2
:1043A0008073C4F88430012384F8813003206FE6E1
:1043B00000963B46002208212046FFF7CFFB28B19C
:1043C000D4F8843043F02003C4F884302046FFF74B
:1043D00055FB002384F88030012384F88130D4F821
:1043E00084301BB9002053E6022051E601204FE63D
:1043F00090F83D30DBB2012B3AD1022380F83D30FA
:104400000268D36843F00103D36003681A4AB3F12A
:10441000804F18BF93421DD0A2F57C42934219D021
:1044200002F58062934215D002F58062934211D06A
:1044300002F5784293420DD0A2F56C42934209D026
:1044400002F59432934205D01A6842F001021A60D4
:10445000002070479968094A0A40062A18BFB2F539
:10446000803F07D01A6842F001021A6000207047AE
:104470000120704700207047000001400700010044
:10448000704770477047704710B5044603681A6953
:1044900012F0020F11D0DA6812F0020F0DD06FF097
:1044A00002021A610123037703689B6913F0030F6B
:1044B00079D0FFF7E6FF0023237723681A6912F00B
:1044C000040F12D0DA6812F0040F0ED06FF004025D
:1044D0001A610223237723689B6913F4407F68D015
:1044E0002046FFF7CEFF0023237723681A6912F0D6
:1044F000080F12D0DA6812F0080F0ED06FF0080221
:104500001A61042323772368DB6913F0030F57D064
:104510002046FFF7B6FF0023237723681A6912F0BD
:10452000100F12D0DA6812F0100F0ED06FF01002D8
:104530001A61082323772368DB6913F4407F46D090
:104540002046FFF79EFF0023237723681A6912F0A5
:10455000010F03D0DA6812F0010F3FD123681A6906
:1045600012F0800F03D0DA6812F0800F3DD123687B
:104570001A6912F4807F03D0DA6812F0800F3BD101
:1045800023681A6912F0400F03D0DA6812F0400F66
:1045900039D123681A6912F0200F03D0DA6812F0BB
:1045A000200F37D110BDFFF76BFF2046FFF76AFFE2
:1045B00081E72046FFF764FF2046FFF763FF92E79D
:1045C0002046FFF75DFF2046FFF75CFFA3E720468C
:1045D000FFF756FF2046FFF755FFB4E76FF00102E3
:1045E0001A612046FCF712FCB8E76FF080021A61EE
:1045F000204600F01AF9BAE76FF480721A6120467B
:1046000000F014F9BCE76FF040021A612046FFF792
:104610003AFFBEE76FF020021A61204600F004F96D
:10462000C0E7000030B50368394A904214BF4FF02C
:10463000000E4FF0010EB0F1804F14BF72464EF0E5
:104640000102AAB9334CA04214BF00240124324D08
:10465000A8420DD064B904F1804404F58234A0422C
:1046600014BF0024012405F50065A84200D01CB148
:1046700023F070034C68234312BB264A904214BFB8
:1046800000220122244CA0421AD0CAB902F1804271
:1046900002F58232904214BF0022012204F5006428
:1046A000A0420DD062B91D4A904214BF00220122DF
:1046B00004F59A34A04203D012B9194A904204D1A9
:1046C00023F4407CCB6843EA0C0323F080034A695F
:1046D000134303608A68C2620A688262114A904288
:1046E00014BF73464EF0010363B90C4B984214BFDC
:1046F0000023012302F57052904203D013B9084BF6
:10470000984201D10B6903630123436130BD00BFAF
:104710000000014000080040000400400044014047
:10472000004801400004014060B310B5044690F811
:104730003D3013B3022384F83D30214651F8040B79
:10474000FFF770FF012384F8483084F83E3084F886
:104750003F3084F8403084F8413084F8423084F8A7
:10476000433084F8443084F8453084F8463084F887
:10477000473084F83D30002010BD80F83C30FCF715
:10478000B5FDD7E70120704790F83C30012B45D0AC
:1047900070B4012380F83C30022380F83D30036878
:1047A0005A689C681E4E1F4DAB4218BFB34203D1DE
:1047B00022F470024D682A4322F070020D682A43E9
:1047C0005A600368164AB3F1804F18BF934217D05E
:1047D000A2F57C42934213D002F5806293420FD03F
:1047E00002F5806293420BD002F57842934207D0E3
:1047F000A2F56C42934203D002F59432934204D165
:1048000024F080048A6814439C60012380F83D30C2
:10481000002380F83C30184670BC70470220704777
:1048200000000140000401407047704770470000DD
:1048300082B000230193019B013301930E4A9342FE
:1048400014D80369002BF6DA00230193036943F0BF
:1048500001030361019B01330193074A934208D886
:10486000036913F0010FF5D1002000E0032002B02E
:1048700070470320FBE700BF400D030084B010B574
:10488000044603A880E80E00089B012B1DD1A36BF2
:1048900023F48033A363E2681D4B1340E360E368B5
:1048A00023F44013E3600F9B012B09D02046FFF750
:1048B000BFFF069B012B1BD0BDE8104004B0704722
:1048C000E36843F48013E360F0E7E36843F04003F8
:1048D000E3602046FFF7ACFF0C9B23B9A36B43F4C6
:1048E0008033A363E5E7A36B23F48033A363E0E79E
:1048F000E36D9BB2E365E26D064B1343E365A3688A
:1049000043F00603A360A36843F02003A360D3E74A
:10491000BFFFBDFF0000EE03022A0AD00921C268D2
:1049200022F47052C260C36843EA8123C36000204E
:104930007047204B0B44204A934229D91F4B0B440C
:104940001F4A934226D91F4B0B441F4A934223D937
:104950001E4B0B441E4A934220D31E4B0B441E4A4F
:1049600093421DD91D4B0B441D4A93421AD31D4B34
:104970000B441D4A934217D31C4B0B441C4A9342D1
:1049800014D31C4B0B441C4A934211D20721C6E797
:104990000F21C4E70E21C2E70D21C0E70C21BEE7BD
:1049A0000B21BCE70A21BAE70921B8E70821B6E7DD
:1049B0000621B4E7405327FFFF340C00401E1BFFC5
:1049C0003F420F0000DC0BFF7F4F1200808CF9FE8E
:1049D00020D6130060B6E5FE5FE3160000D3CEFEDE
:1049E00040771B00C05BB3FEC091210000CA91FE5E
:1049F00020753800E05459FEE09C4100836843F084
:104A00000103836000207047836823F00103836003
:104A10000020704782B000230193019B0133019372
:104A20000E4A934214D80369002BF6DA002301934F
:104A3000890141F020010161019B01330193074A83
:104A4000934208D8036913F0200FF5D1002000E04D
:104A5000032002B070470320FBE700BF400D0300B6
:104A600082B000230193019B013301930D4A9342CD
:104A700012D80369002BF6DA002301931023036197
:104A8000019B01330193074A934208D8036913F04D
:104A9000100FF5D1002000E0032002B07047032082
:104AA000FBE700BF400D0300D0F800381943C0F801
:104AB000001800207047000084B02DE9F041044642
:104AC00007A880E80E00002306E003F1400204EB93
:104AD00082020021516001330E2BF6D9119F27BBB2
:104AE000D4F8043843F00203C4F80438A36B23F469
:104AF0000013A363236843F040032360236843F05B
:104B0000800323600023C4F8003E04F50065D4F858
:104B10000038C4F800380C9B012B10D1099B4BB90D
:104B200000212046FFF7C0FF0DE0A36B43F4001304
:104B3000A363E7E701212046FFF7B6FF03E0032167
:104B40002046FFF7B1FF10212046FFF763FF8046A4
:104B500008B14FF001082046FFF782FF08B14FF07F
:104B6000010800232B616B61EB610AE0C3B94FF0D0
:104B70000060C2F8000900220A614FF67F328A60A5
:104B800001330799994210D904EB431202F51061E1
:104B9000D2F800090028E9DB0020C2F80009EAE7A2
:104BA0004FF09040C2F80009E5E700230AE0C3B1E6
:104BB0004FF0904CC2F800CB002202614FF67F32DA
:104BC00082600133994211D904EB431202F530603F
:104BD000D2F8006B002EEADB4FF0000CC2F800CBDD
:104BE000EAE74FF0006CC2F800CBE5E72B6923F44D
:104BF00080732B610023A3616FF0804363610A9B84
:104C00001BB9A36943F01003A361A2690A4B1343C4
:104C1000A3610D9B1BB1A36943F00803A361012F9E
:104C200004D04046BDE8F04104B07047A269034B90
:104C30001343A361F5E700BF00383C800400004047
:104C4000D0F8083813F0060305D0062B18BF022B46
:104C500003D102207047002070470F2070470000EA
:104C600010B591F800C04B78012B21D000F5006EF3
:104C7000D0F81C380CF00F040122A24043EA024392
:104C8000C0F81C3800EB4C10D0F8003B13F4004F78
:104C90000CD1D0F8002B8B68C3F30A03C97843EA20
:104CA00081431343144A1A43C0F8002B002010BD5F
:104CB000D0F81C280CF00F0E03FA0EF39BB213432E
:104CC000C0F81C3800EB4C10D0F8003913F4004F3A
:104CD000ECD1D0F800298B68C3F30A03C97843EA02
:104CE000814343EA8C5C42EA0C0C034B4CEA03031D
:104CF000C0F80039DAE700BF0080001030B40B784C
:104D00004A78012A26D000EB4313D3F8002B002A5F
:104D100052DBD0F83C480A7802F00F024FF0010C49
:104D20000CFA02F224EA0242C0F83C28D0F81C280F
:104D3000097801F00F010CFA01FC22EA0C42C0F8DC
:104D40001C28D3F8001B234A0A40C3F8002B00207C
:104D500030BC704700EB4313D3F80029002A1EDB58
:104D6000D0F83C580A7802F00F02012404FA02F24B
:104D700092B225EA0202C0F83C28D0F81C28097833
:104D800001F00F018C40A4B222EA0404C0F81C48D0
:104D9000D3F80019104A0A40C3F80029D7E7D3F81E
:104DA000002942F00062C3F80029D3F8002942F03C
:104DB0008042C3F80029D3E7D3F8002B42F0006209
:104DC000C3F8002BD3F8002B42F08042C3F8002B2D
:104DD0009FE700BF0078F3EF007833EC70B40B78F6
:104DE0004C78012C25D000EB431000F530631D6991
:104DF0003F4C2C401C611D693E4C2C401C614C6991
:104E00000CB18C684C611C6944F400241C611C6961
:104E10008D68C5F3120C44EA0C041C61012A62D0AF
:104E2000D0F8003B43F00443C0F8003B002070BCC6
:104E300070474C695CBB00EB4314D4F810692D4DEE
:104E40003540C4F81059D4F8105945F40025C4F879
:104E50001059D4F81069264D3540C4F81059012A6C
:104E600032D000EB4313D3F8002942F00442C3F8D8
:104E700000294B69002BD9D0D0F834380A7802F0D9
:104E80000F0101228A401343C0F83438CEE700EB0B
:104E9000431404F510642669154D354025612669D3
:104EA000144D354025618D684E69AE4200D94D6183
:104EB000256945F40025256125694E69C6F3120C64
:104EC00045EA0C052561CAE70A691AB100EB4311EE
:104ED000C1F8142900EB4310D0F8002942F0044235
:104EE000C0F80029A2E7CA68002A99D05A6197E75A
:104EF0000000F8FFFFFF07E010B59DF8084084B9F7
:104F000003334FEA930E4FF0000C08E000EB02333E
:104F100003F5805351F8044B1C600CF1010CF4456F
:104F2000F4D3002010BD0000F0B583B00B784C78AE
:104F3000012C31D000EB431303F5306CDCF810503A
:104F4000834C2C40CCF81040DCF81050814C2C40A5
:104F5000CCF810404C69002C40F0C680DCF81040C2
:104F60008D68C5F312052C43CCF81040DCF81040D6
:104F700044F40024CCF81040012A00F0CF80CA7815
:104F8000012A00F0D280D3F8002B42F00442C3F88B
:104F9000002B002003B0F0BD4C6974BB00EB431440
:104FA000D4F810696B4D3540C4F81059D4F8105935
:104FB00045F40025C4F81059D4F81069644D354003
:104FC000C4F81059012A4DD000EB4313D3F800491F
:104FD00044F00444C3F80049CC78012C6BD04B69F1
:104FE000002BD6D0D0F834380A7802F00F01012215
:104FF0008A401343C0F83438CBE700EB4314D4F8AD
:105000001069534D3540C4F81059D4F81069514D0A
:105010003540C4F81059D4F810598E684F6907EB21
:10502000060C0CF1FF3CBCFBF6FC4B4E06EACC4CEC
:1050300045EA0C05C4F81059D4F810594E69C6F366
:1050400012063543C4F8105904F51064CD78012DCB
:10505000B8D1256925F0C0452561256945F0005581
:105060002561AFE70A691AB100EB4314C4F81429AB
:10507000CA78012A08D000EB4313D3F8002942F084
:105080000442C3F8002984E7D0F8082812F4807F8E
:1050900008D100EB4311D1F8002942F00052C1F8C9
:1050A0000029E8E700EB4311D1F8002942F08052D3
:1050B000C1F80029DFE7D0F8084814F4807F0CD14C
:1050C000D3F8004944F00054C3F8004900928B8A99
:1050D0000A78C968FFF710FF5BE7D3F8004944F08E
:1050E0008054C3F80049F1E78D682C44013CB4FBBF
:1050F000F5F4DCF810501FFA84FE174E06EAC4449B
:105100002543CCF81050DCF810508C680EFB04F4EA
:10511000C4F312042C43CCF810402DE7CA68002ACF
:105120003FF42DAFCCF8142029E7D0F8082812F46A
:10513000807F06D1D3F8002B42F00052C3F8002B39
:1051400021E7D3F8002B42F08052C3F8002B1AE776
:105150000000F8FFFFFF07E00000F81F00B583B074
:10516000844608464FEA920E02F00302002305E04F
:105170000CF58051096840F8041B01337345F7D3DF
:105180009AB10CF5805CDCF8003001934FF0000C14
:105190005FFA8CF3D900019BCB4000F8013B0CF186
:1051A000010C013A92B2002AF2D103B05DF804FB7F
:1051B0000B784A78012A14D000EB4310D0F8002B6A
:1051C000002A06DB2BB1D0F8003B23F08043C0F867
:1051D000003BD0F8003B43F40013C0F8003B002034
:1051E000704700EB4310D0F80029002A06DB2BB1F2
:1051F000D0F8003923F08043C0F80039D0F80039E6
:1052000043F40013C0F80039E9E70B784A78012A23
:105210000ED000EB4310D0F8003B23F40013C0F88D
:10522000003BCB78023BDBB2012B15D90020704745
:1052300000EB4310D0F8003923F40013C0F8003914
:10524000CB78023BDBB2012BF0D8D0F8003943F029
:105250008053C0F80039E9E7D0F8003B43F08053B1
:10526000C0F8003BE2E7D0F8003823F4FE63C0F852
:105270000038D0F80038090101F4FE611943C0F884
:10528000001800207047D0F8003E23F00303C0F858
:10529000003ED0F8043823F00203C0F804380020A0
:1052A0007047D0F8003E23F00303C0F8003ED0F86A
:1052B000043843F00203C0F8043800207047426904
:1052C000806910407047D0F8183800F50060C06958
:1052D0001840000C7047D0F8183800F50060C0691D
:1052E000184080B2704700EB4111D1F8082B00F54F
:1052F000006040691040704710B4D0F81048D0F8F2
:10530000343801F00F02D340DB01DBB2234300EB62
:10531000411000F51060806818405DF8044B70473C
:10532000406900F00100704738B50546C36823F0B6
:10533000C043C360012913D019BBC36843F0804345
:10534000C36000240120FCF735F801342846FFF73C
:10535000E7FF08B1312CF5D9322C14D0002038BD2C
:10536000C36843F00053C36000240120FCF722F817
:1053700001342846FFF7D4FF0128EDD0312CF4D9B1
:10538000EAE70120EBE70120E9E70000D0F8002977
:10539000054B1340C0F80039D0F8043843F480734B
:1053A000C0F804380020704700F8FFFF10B4046C08
:1053B000154B9C4203D9D0F8003B002B16DB002490
:1053C000C0F8104BD0F8104B44F40024C0F8104B38
:1053D000D0F8104B44F01804C0F8104BD0F8104B24
:1053E00044F0C044C0F8104B012903D000205DF800
:1053F000044B7047C0F8142BD0F8003B43F08023D7
:10540000C0F8003BF2E700BF0A30544F202303806E
:10541000004870477C00002020230380004870472C
:105420009C0000202023038000487047D400002007
:10543000D0F8BC3200201875704708B5D0F8BC32DF
:105440003BB1D0F8C022D268597818789047002034
:1054500008BD0320FCE710B5D0F8BC426CB123694D
:10546000012B01D0002010BDD0F8C032DB6861787C
:105470002078984700202061F5E70320F3E700003B
:105480000A23038000487047C800002030B583B06D
:10549000D0F8BC320022ADF80620002B00F08C8042
:1054A0000C7814F060042ED0202C7FD14A78023A78
:1054B000092A24D8DFE802F0140923232323231B1D
:1054C0000F058A785A60002473E00122191D00F04C
:1054D000F0FD00246DE04A88120A9A60002468E01A
:1054E000012203F1080100F0E4FD002461E0012243
:1054F0001A61CA88194600F0F1FD002459E000F055
:10550000ABFA032455E04D780B2D4BD8DFE805F0BE
:1055100006514A4A4A4A164A4A4A2F3E90F89C3255
:10552000DBB2032B03D000F097FA032441E0022200
:105530000DF1060100F0BDFD2C463AE04B881B0A38
:10554000222B06D0212B0CD000210A4600F0B1FD01
:105550002FE0CA881D2A28BF1D22D0F8C032196842
:10556000F4E7CA88092A28BF09221449EEE790F80F
:105570009C22D2B2032A03D000F06EFA032418E072
:10558000012203F10C0100F094FD12E090F89C223E
:10559000D2B2032A02D18A78DA600AE000F05CFA1B
:1055A000032406E000F058FA032402E000F054FA65
:1055B0000324204603B030BD0324FAE7BC000020DA
:1055C00038B50446812103F05DFA002525876587FB
:1055D0000121204603F056FAA4F87851A4F87A5134
:1055E000D4F8BC324BB1D4F8C0329B689847D4F899
:1055F000BC0203F029FAC4F8BC52002038BDF8B54B
:105600000446182003F01CFA40B30746C4F8BC0255
:10561000237C43BB05236387A4F87A314FF40073DE
:1056200002228121204603F022FA012626874FF428
:10563000007302223146204603F019FAA4F878617B
:1056400000253D75D4F8C0325B68984702233A467E
:105650003146204603F03EFA2846F8BD0023C4F840
:10566000BC320220F9E705236387A4F87A31D5E735
:1056700010B5D0F8BC32BBB190F89CC25FFA8CFC7C
:10568000BCF1030F02D00024204610BD1C7D0CB1DC
:105690000124F9E74FF0010C83F814C013460A46C1
:1056A000812103F00FFAEFE70324EDE7D0F8BC22E5
:1056B00032B108B50223012103F00CFA002008BD25
:1056C0000320704719B1C0F8C012002070470320B2
:1056D000704798B108B503460020C3F8B802C3F874
:1056E000C002C3F8CC0209B1C3F8B412012183F897
:1056F0009C121A70184603F053F908BD0320704736
:1057000010B582B00023ADF8063061B10446C0F890
:10571000B812CB6A4BB10DF106009847C4F8CC0221
:10572000002002B010BD0320FBE70020F9E708B518
:1057300003F095F908BD08B5D0F8B83213B11B686D
:10574000984708BD0320FCE708B5D0F8B8320BB184
:105750005B689847002008BD38B5044600F2AA25CA
:10576000284600F065F90123C4F89432B4F8B03249
:10577000C4F8983294F8AA1201F01F03012B0DD03F
:10578000022B10D02BB101F08001204603F082F9EA
:1057900003E02946204600F00AFB38BD2946204692
:1057A00000F03DFBF9E72946204600F06CFBF4E7EA
:1057B00038B504460D4641BB1346D0F89422032A5F
:1057C00001D0084638BDD0F85C11D0F86021914274
:1057D00009D890F89C32DBB2032B0FD0204600F0A2
:1057E00094FC2846EEE7891AC0F85C118A4228BF6B
:1057F0000A46194600F081FC2846E3E7D0F8B832A3
:105800001B69002BEAD09847E8E790F89C32DBB29E
:10581000032B01D00020D5E7D0F8B8329B690BB13B
:105820009847CFE70020CDE738B504460D4600295C
:105830004AD11346D0F89422022A05D094F8A03217
:10584000012B3CD0284638BDC269016A8A420ED875
:105850008A4218D094F89C32DBB2032B27D08021E7
:10586000204603F017F9204600F05AFCE6E7521AEA
:10587000C261194600F02AFC00231A461946204648
:1058800003F028F9DAE783699942E3D8D0F898223F
:105890009342DFD20022114600F018FC0021C4F828
:1058A00098120B460A46204603F014F9C6E7D4F8CE
:1058B000B832DB68002BD2D020469847CFE70023D0
:1058C00084F8A0322846BEE790F89C32DBB2032B66
:1058D00001D00020B7E7D0F8B8325B690BB1984728
:1058E000B1E70020AFE7012380F89C320023C0F825
:1058F00094324360C0F8A432D0F8B832F3B170B536
:105900000446D0F8BC221AB15B680BB1002198475D
:10591000402300221146204603F0A9F80126A4F8EE
:1059200064614025C4F860512B4600228021204646
:1059300003F09DF8A6842562002070BD0320704707
:1059400001740020704790F89C32DBB280F89D32E1
:10595000042380F89C320020704790F89C32DBB220
:10596000042B01D00020704790F89D32DBB280F804
:105970009C32F7E7D0F8B82262B108B590F89C32B3
:10598000DBB2032B01D0002008BDD36923B19847B7
:105990000020F9E7032070470020F5E7D0F8B8228F
:1059A00062B108B590F89C32DBB2032B01D0002025
:1059B00008BD136A23B198470020F9E70320704718
:1059C0000020F5E7D0F8B82262B108B590F89C3213
:1059D000DBB2032B01D0002008BD536A23B19847E6
:1059E0000020F9E7032070470020F5E7002070470A
:1059F00008B5012380F89C32D0F8B83213B15B6847
:105A000001799847002008BD0346002002E00130DC
:105A1000C0B201331A78002AF9D1704708B54B8813
:105A2000012B00D008BDC0F8A43200F06EFBF9E7EE
:105A30000B7803704B7843708B78CA7843EA022363
:105A400043800B794A7943EA022383808B79CA79B0
:105A500043EA0223C380704710B50446802103F057
:105A600019F80021204603F015F810BD30B583B0B9
:105A700004460D460023ADF806304A88130A013B60
:105A8000062B00F2AB80DFE803F0041F33A9A98DD9
:105A90009A00D0F8B4321B680DF10601007C9847DB
:105AA000EA88002A00F0A380BDF80630002B00F041
:105AB00099809A4228BF1A46ADF806200146204632
:105AC00000F0F7FA03B030BD037C43B9D0F8B83228
:105AD0009B6A0DF10600984702234370E0E7D0F877
